:020000040800F2
:10000000A8070020552D0008E5050008E7050008B1
:10001000EB050008EF050008F305000800000000EC
:10002000000000000000000000000000F7050008CC
:10003000F905000800000000FB050008FD050008A8
:100040006F2D00086F2D00086F2D00086F2D000820
:100050006F2D00086F2D00086F2D00086F2D000810
:100060006F2D00086F2D00086F2D00086F2D000800
:100070006F2D00086F2D00086F2D00086F2D0008F0
:100080006F2D00086F2D00086F2D00086F2D0008E0
:100090006F2D00086F2D00086F2D00086F2D0008D0
:1000A0006F2D00086F2D00086F2D00086F2D0008C0
:1000B0006F2D0008A90200086F2D00086F2D0008A1
:1000C0006F2D00086F2D00086F2D00086F2D0008A0
:1000D0006F2D00082B4C00086F2D00086F2D0008B5
:1000E0006F2D00086F2D00086F2D00086F2D000880
:1000F0006F2D00086F2D00086F2D00086F2D000870
:100100006F2D00086F2D00086F2D00086F2D00085F
:100110006F2D00086F2D00086F2D00086F2D00084F
:100120006F2D00086F2D00086F2D00086F2D00083F
:1001300000F002F800F03FF80AA090E8000C8244BA
:100140008344AAF10107DA4501D100F034F8AFF297
:10015000090EBAE80F0013F0010F18BFFB1A43F0A5
:10016000010318471468000034680000103A24BFE7
:1001700078C878C1FAD8520724BF30C830C144BF0C
:1001800004680C607047000000230024002500264E
:10019000103A28BF78C1FBD8520728BF30C148BFEA
:1001A0000B607047782904F0C785002070471FB5A1
:1001B0001FBD10B510BD04F077FE1146FFF7F7FF25
:1001C00000F05FF904F095FE03B4FFF7F2FF03BC03
:1001D00004F0D0FC3EB504460D46002018210B4625
:1001E000EF22CDE9001502902146052002F04CFBDC
:1001F0003EBD08B54FF6FF704FF49A73EF221421FD
:100200000090002002F083F808BD0EB54FF6FF7095
:1002100001F00CFE0020B84908800120B7A10C2293
:100220001346CDE900210290F0220021052002F0C2
:100230002BFB0120BAA10C221346CDE9002102902C
:10024000F02240F23311052002F01EFB0EBD7FB5F7
:1002500005460C460121022003F033F9ADF80850A1
:10026000ADF804400020ADF80A00ADF8060001A981
:10027000B14803F0D7FB01221146AF4803F049FF14
:100280001D208DF8000000208DF8010003208DF85E
:10029000020001208DF80300684602F080FD012174
:1002A000A54803F01BFF7FBD10B50120A3490870CE
:1002B0000121A14804F0DBF918B101219E4804F0A6
:1002C000E7F910BD10B5FFF794FF9DA14420FFF79B
:1002D00081FF9FA17420FFF77DFFA1A18C20FFF774
:1002E00079FFA3A1A420FFF775FFA5A1BC20FFF70C
:1002F00071FF10BD02F02BFC042000F038FE00213D
:10030000084600F0FEFA00F0D4FA37E09F4802F009
:1003100001FC002832D19E4908609C48007844289E
:1003200015D19A484078452811D1984880784128BD
:100330000DD19648C078442809D1042000F017FE5A
:100340000021084600F0DDFA00F0B3FA13E00024C3
:100350000FE000256000401C8C49085C0A4612F83A
:10036000141040EA0125E94388B200F0A8FA601CA5
:10037000C4B2102CEDDB012085490860C6E78CB0C3
:100380000024002502F0E3FBFFF733FF012081A1E9
:1003900018221346CDE900210290F02228210520E1
:1003A00002F072FA012080A118221346CDE9002143
:1003B0000290F0227821052002F066FA01207EA149
:1003C00018221346CDE900210290F022AA2105202F
:1003D00002F05AFA01207BA118221346CDE9002130
:1003E0000290F022DC21052002F04EFA48E003A83A
:1003F00002F090FB28B900208DF82C00641C681CCA
:1004000085B24E48007800283AD0002003A9102277
:100410002023CDE900210290EF22402102F034FA9E
:100420000020182112232246CDE9001090210A2035
:1004300002F0BAF90020182162011223CDE9001060
:10044000C2210A2002F0B0F900201821CDE90010E5
:10045000680100EB40020B23F4210A2002F0A4F90A
:1004600001205AA118221346CDE9002102906422EE
:10047000F421A02002F008FA002500202F4908707E
:10048000B5E70EB504F00CFB4FF4A06002F082FC5F
:100490004FF4165004F07DFB41F61F4140F6055025
:1004A000FFF7D5FE01F0FFFC02F02CFCFFF7ADFEDC
:1004B00002F01EFA1AE0002046A110221346CDE9F0
:1004C00000210290C82282213C2002F0DDF9C820E0
:1004D00004F023FB4FF6FF709223EF22822100905D
:1004E0003C2001F014FFC82004F017FB02F09AFA38
:1004F0000028E0D1FFF743FF18000020434F505978
:100500005249474854202843292032303136204F61
:10051000574C455420494E44555354524945530075
:100520004E52462052454D4F54452054554E45524B
:100530002056322E3500000000040040000000204C
:100540005B4D09603141494E204D454E555D0000DF
:10055000312E4E5246204C697374656E65720000F0
:10056000322E44617461204C6F6767657200000031
:10057000332E496D616765205669657765720000A5
:10058000342E5465726D696E616C00003C00002071
:10059000A0012142496E636F6D696E67206D6573BE
:1005A000736167653A0000005278205061636B61A7
:1005B0006765733A000000004461746120466C6F07
:1005C000773A000053706565643A000042797465BB
:1005D0002F7300004E524632344C30312045727237
:1005E0006F720000704700BFFEE700BFFEE700BF6C
:1005F000FEE700BFFEE77047704770477047000096
:100600000CB50020019000906C48006840F48030E8
:100610006A49086000BF6948006800F40030009033
:100620000198401C0190009818B90198B0F5A06F8E
:10063000F1D16248006800F4003010B10120009050
:1006400001E0002000900098012843D15C48006838
:1006500040F010005A4908600846006820F0030086
:1006600008600846006840F002000860534840688F
:10067000524948600846406848600846406840F46F
:10068000806048600846406820F47C104860084656
:10069000406840F4E81048600846006840F0807008
:1006A000086000BF4548006800F000700028F9D0DD
:1006B0004248406820F003004049486008464068CE
:1006C00040F00200486000BF3C48406800F00C0069
:1006D0000828F9D10CBD10B5FFF792FF10BD10B579
:1006E0003648006840F00100344908600846406818
:1006F000344908403149486008460068324908409A
:100700002E4908600846006820F4802008600846EA
:10071000406820F4FE0048604FF41F008860FFF737
:10072000DAFF4FF000602949086010BD10B50021C4
:1007300000200022214B5B6803F00C0121B1042949
:1007400006D0082928D107E0214B224C236027E05E
:100750001F4B204C236023E0184B5B6803F47010A0
:10076000164B5B6803F48032022303EB904022B9FE
:10077000194B4343174C23600DE0104B5B6803F4A7
:10078000003323B1144B4343124C236003E0104B5E
:100790004343104C236003E00D4B0E4C236000BF1D
:1007A00000BF064B5B68C3F303130C4CE15C094BC1
:1007B0001B68CB40074C236010BD000000100240B6
:1007C000002002400000FFF8FFFFF6FE08ED00E009
:1007D00000127A000400002000093D0008000020FB
:1007E0004FF48071FD4A516149005161FC49086034
:1007F0008021516111618900116170474FF480714E
:10080000F64A116149005161F54908608021516142
:10081000116189001161704710B54FF08830F049BF
:100820000C390860091D08600020ED490860881532
:10083000EA4908614000486140204861E9488088F1
:1008400048F68911884202D1022004F042F9E448B6
:10085000001F006884B24020E0490861C0000861C0
:100860004FF03330DE490C390860091D08604FF63F
:10087000FF70DB490860204610BD10B504460B46EA
:100880002046FFF7ADFF4FF48070D4490861400067
:100890004861D34803608020486108618000086196
:1008A00010BD10B504462046FFF79AFFFFF7B4FFCE
:1008B00010BD00B5CB490889FFF792FF00BD4FF48A
:1008C0008071C64A116149005161C54908608021A3
:1008D0005161116189001161704730B5014601F025
:1008E0001F04C1F34513CA0AE50205EB431515447D
:1008F000A8B230BD00BF0100A0F10102D0B2FAD110
:10090000704730B504460D46B648808849F24131FB
:10091000884205D0B348808845F21031884240D1E2
:10092000B0494889FFF75CFF4FF48070AB4908611C
:10093000400048612012AA4908608020A749486108
:100940000861800008614010086140004861E0B221
:10095000A34908608020A1494861086180000861BE
:10096000A0498889FFF73CFF4FF480709B490861DC
:100970004000486128129A490860802097494861E0
:100980000861800008614010086140004861E8B2D9
:10099000934908608020914948610861800008619E
:1009A0008CE19048808846F60401884249D18D4800
:1009B0008079012804D18B480088401E001B84B236
:1009C00088494889FFF70CFF4FF48070834908611C
:1009D0004000486120128249086080207F494861B8
:1009E0000861800008614010086140004861E0B281
:1009F0007B4908608020794948610861800008616E
:100A000078498889FFF7ECFE4FF4807073490861DC
:100A10004000486128127249086080206F4948618F
:100A20000861800008614010086140004861E8B238
:100A30006B4908608020694948610861800008614D
:100A40003CE16848808841F6631188427ED1654860
:100A5000807900283FD163480088401E001B84B283
:100A600060494889FFF7BCFE4FF480705B4908611C
:100A70004000486100205A49086080205749486179
:100A80000861800008614010086140004861002052
:100A9000534908608020514948610861800008611D
:100AA000401008614000486120124D4908608020D4
:100AB0004A494861086180000861401008614000AF
:100AC0004861E0B2464908608020444948610861B5
:100AD0008000086141E043494889FFF781FE4FF4F7
:100AE00080703E4908614000486120123C4908601E
:100AF00080203A494861086180000861401008611F
:100B000040004861E0B236490860802033494861BE
:100B10000861800008614010086140004861314868
:100B20000088401E00122E49086080202B49486131
:100B30000861800008614010086140004861294850
:100B40000078401EC0B22649086000E04CE08020DA
:100B50002249486108618000086122498889FFF7BD
:100B60003FFE4FF480701D49086140004861281223
:100B70001B490860802019494861086180000861AC
:100B80004010086140004861E8B2154908608020C3
:100B90001249486108618000086140100861400006
:100BA000486110484088401E00120D4908608020AE
:100BB0000A494861086180000861401008614000EE
:100BC000486108488078401EC0B20549086080200E
:100BD000024948610861800008616FE0001001402F
:100BE0000C0C01405C000020F748808845F2105151
:100BF000884250D1F4494889FFF7F2FD4FF48070E4
:100C0000F2490861400048612012F14908608020E3
:100C1000EE494861086180000861EB494989491C37
:100C200088B2FFF7DDFD4FF48070E84908614000AD
:100C30004861E0B2E64908608020E4494861086103
:100C400080000861E0498889FFF7CAFD4FF4807091
:100C5000DE490861400048612812DD4908608020B3
:100C6000DA494861086180000861D7498989491CCF
:100C700088B2FFF7B5FD4FF48070D4490861400099
:100C80004861E8B2D24908608020D04948610861D3
:100C90008000086112E0CC488079012804D1CA485C
:100CA0000088401E001B84B2C74948892146FFF7CF
:100CB000E4FDC54988892946FFF7DFFD30BD2DE9F0
:100CC000F04105460E46C0480088A84203DDBE48F4
:100CD0004088B04202DC0020BDE8F0813146284661
:100CE000FFF70FFEB848808849F24131884211D0A1
:100CF000B548808846F6040188420BD0B248808807
:100D000045F21031884205D0AF48808841F6631122
:100D1000884203D12E20FFF763FD0DE0AA488088AA
:100D200045F21051884204D14FF43850FFF758FD76
:100D300002E02220FFF754FD4FF08830A4490C391F
:100D40000860091D08604FF6FF70A149086088150A
:100D50009E49086140004861402048610220FFF739
:100D6000C9FD9B48001F006884B240209749086174
:100D70009548808841F66311884210D14FF4007085
:100D8000924908614FF0333091490C390860091DD0
:100D900008604FF6FF708E49086020469CE74020AF
:100DA0008A4948610220FFF7A5FD8948001F0068B5
:100DB00084B24020854908618348808849F24131E6
:100DC00088420BD08048808845F21031884205D097
:100DD0007D48808845F21051884213D140207B49DC
:100DE00048610220FFF786FD7948001F00681FFA5E
:100DF00080F8402075490861E7B24FF6FF7000EABD
:100E000007270DE07048808846F60401884207D124
:100E100040206E49486108616D48001F006884B237
:100E20004FF40070694908614FF0333068490C395C
:100E30000860091D08604FF6FF7065490860624848
:100E4000808849F22531884216D05F48808844F274
:100E50003551884210D05C488088091F88420BD0E9
:100E60005948808848F68911884205D056488088BC
:100E70004BF20551884201D120462DE75248808827
:100E800049F2413188420BD04F48808845F21031F9
:100E9000884205D04C48808845F21051884207D1DD
:100EA000E012C002B91240EA411040EAE82013E71C
:100EB0002046FFF712FD0FE700B54348808849F24E
:100EC0004131884211D04048808846F6040188426A
:100ED0000BD03D48808845F21031884205D03A4811
:100EE000808841F66311884203D12920FFF778FCFE
:100EF0000FE03548808845F21051884204D14FF404
:100F00002450FFF76DFC04E040F273110720FFF757
:100F1000B4FC00BD00B52C48808849F241318842BC
:100F200011D02948808846F6040188420BD0264813
:100F3000808845F21031884205D02348808841F6E8
:100F40006311884203D12820FFF74AFC0EE01E48B7
:100F5000808845F21051884204D14FF42050FFF7A9
:100F60003FFC03E000210720FFF787FC00BDF0B540
:100F70000546002400271448807901280BD1124827
:100F8000808846F60401884205D00F48808841F6E3
:100F90006311884208D10C48807920BB0A488088B8
:100FA00041F6631188421ED1082D1BD2DFE805F0FF
:100FB0000406080A12141618062513E0072511E086
:100FC00004250FE005250DE05C0000200010014025
:100FD0000C0C0140012505E0002503E0032501E09C
:100FE000022500BF00BFF848808849F2413188429D
:100FF00017D0F548808846F60401884211D0F2489F
:10100000808845F2103188420BD0EF48808845F245
:101010001051884205D0EC48808841F6631188421F
:101020007ED1082D1CD2DFE805F00406090C0F1252
:10103000151800BF14E044F0800411E044F04004AF
:101040000EE044F0C0040BE044F0200408E044F05B
:10105000600405E044F0A00402E044F0E00400BFB6
:1010600000BFD948808845F21051884202D14FF420
:10107000585700E03627D448808845F2103188421E
:101080000DD0D148808845F21051884207D0CE4813
:10109000808841F66311884201D044F00804CA48B0
:1010A000808846F60401884201D144F002042146BA
:1010B0003846FFF7E2FBC448808841F66311884256
:1010C0001DD004F0200068B1BF480088BE4949889F
:1010D000884214DABC4806884088BB490880084624
:1010E00046800CE0B8480088B7494988884206DD48
:1010F000B54806884088B449088008464680B2480A
:10110000808845F2105188427ED1AF494889FFF767
:1011100067FB4FF48070AD4908614000486100E012
:1011200029E10020AA4908608020A8494861086197
:1011300080000861A4494989491C88B2FFF750FB27
:101140004FF48070A1490861400048610020A04927
:10115000086080209D4948610861800008619A49C3
:101160004989891C88B2FFF73BFB4FF4807097498F
:1011700008614000486194480088401E001294496C
:1011800008608020914948610861800008618E49AB
:101190004989C91C88B2FFF723FB4FF480708B4943
:1011A00008614000486188480078401EC0B2884904
:1011B0000860802085494861086180000861824993
:1011C0008889FFF70DFB4FF480708049086140006B
:1011D000486100207E49086080207C4948610861A0
:1011E0008000086178498989491C88B2FFF7F8FABC
:1011F0004FF48070754908614000486100207449CF
:1012000008608020714900E034E048610861800096
:1012100008616D498989891C88B2FFF7E1FA4FF4AA
:1012200080706A4908614000486167484088401EF4
:1012300000126749086080206449486108618000A5
:10124000086161498989C91C88B2FFF7C9FA4FF45E
:1012500080705E490861400048615B488078401EAC
:10126000C0B25B490860802058494861086180002D
:101270000861A7E054494889FFF7B2FA4FF480703B
:1012800052490861400048610020514908608020AF
:101290004E494861086180000861401008614000C3
:1012A000486100204A490860802048494861086137
:1012B0008000086140100861400048614248008891
:1012C000401E001242490860802040494861086180
:1012D0008000086140100861400048613A48007889
:1012E000401EC0B23A490860802038494861086110
:1012F0008000086134498889FFF772FA4FF48070E2
:10130000324908614000486100203149086080206E
:101310002E49486108618000086140100861400062
:10132000486100202A4908608020284948610861F6
:1013300080000861401008614000486122484088F0
:10134000401E00122249086080202049486108613F
:101350008000086140100861400048611A488078A8
:10136000401EC0B21A4908608020184948610861CF
:101370008000086126E0082D1CD2DFE805F0040794
:101380000A0D0F12151844F0300413E044F0100455
:1013900010E044F020040DE000BF0BE044F03804FE
:1013A00008E044F0280405E044F0180402E044F0AA
:1013B000080400BF00BF032744F480542146384688
:1013C000FFF75BFAF0BD00005C0000200010014058
:1013D0000C0C014030B504460D4629462046FFF767
:1013E00090FAFFF766FA4FF48070FE4908614000FA
:1013F0004861FD480088FD4908608020F94948613E
:1014000008618000086130BD70B504460D4616467F
:10141000F748808849F24131884205D0F4488088F5
:1014200045F21031884240D1F1494889FFF7D8F997
:101430004FF48070EB490861400048612012EB498D
:1014400008608020E7494861086180000861401019
:10145000086140004861E0B2E44908608020E14949
:101460004861086180000861E1498889FFF7B8F99F
:101470004FF48070DB490861400048612812DB4965
:1014800008608020D74948610861800008614010E9
:10149000086140004861E8B2D44908608020D14921
:1014A00048610861800008613DE1D148808845F2CB
:1014B0001051884250D1CE494889FFF791F94FF435
:1014C0008070C8490861400048612012C74908601F
:1014D0008020C4494861086180000861C449498985
:1014E000491C88B2FFF77CF94FF48070BD49086150
:1014F00040004861E0B2BD4908608020B9494861B8
:10150000086180000861BA498889FFF769F94FF4DA
:101510008070B4490861400048612812B3490860EE
:101520008020B0494861086180000861B04989891C
:10153000491C88B2FFF754F94FF48070A94908613B
:1015400040004861E8B2A94908608020A549486187
:10155000086180000861E6E0A548808841F66311D3
:1015600088427DD1A248807920B9A1480088401ED8
:10157000001B84B29E494889FFF732F94FF480700E
:10158000984908614000486120129849086080200D
:10159000944948610861800008614010086140007A
:1015A0004861E0B29149086080208E494861086135
:1015B00080000861401008614000486120128B499A
:1015C00008608020874948610861800008614010F8
:1015D000086140004861E0B2844908608020814988
:1015E000486108618000086181498889FFF7F8F83F
:1015F0004FF480707B4908614000486128127B49A4
:1016000008608020774948610861800008614010C7
:10161000086140004861E8B274490860802071495F
:10162000486108618000086140100861400048611D
:1016300028126E49086080206A494861086180006C
:1016400008614010086140004861E8B267490860DD
:1016500080206449486108618000086163E0FFE719
:101660006348808846F60401884249D16048807901
:10167000012804D15E480088401E001B84B25C49EA
:101680004889FFF7ADF84FF4807056490861400073
:10169000486120125549086080205249486108611C
:1016A000800008614010086140004861E0B24F4985
:1016B000086080204B4948610861800008614C49FE
:1016C0008889FFF78DF84FF4807046490861400023
:1016D00048612812454908608020424948610861F4
:1016E000800008614010086140004861E8B23F494D
:1016F000086080203B49486108618000086112E071
:101700003B488079012804D139480088401E001BDD
:1017100084B2374948892146FFF7AFF834498889B0
:101720002946FFF7AAF84FF480702E49486140001F
:1017300048612F4800892D49086080202949486167
:101740000861800008614010086140004861274836
:1017500006608020486108618000086170BD2DE945
:10176000F0410446BE20FFF73BF84FF480701D495E
:1017700008614000486105201C4908608020194923
:1017800048610861800008614010086140004861BC
:10179000204603F0E6FB05464FF06632154B03F09A
:1017A000F3FB074603F0B0FB1049086080200D49A9
:1017B000486108618000086140100861400048618C
:1017C00001200A49086080200649486108618000BC
:1017D00008614010086140004861FF20034908602B
:1017E000802009E000100140180000200C0C01408E
:1017F0005C00002066660440FE4948610861800084
:10180000086140100861400048610020FA49086002
:101810008020F84948610861800008614010086133
:10182000400048610020F44908608020F149486187
:10183000086180000861BDE8F08110B50446002C05
:1018400066D1EE498871F02008804FF4A07048807E
:101850000846808849F2413188420BD0E7488088A9
:1018600046F60401884205D0E448808845F21031EC
:1018700088421AD12C20E14908812A2048812B2056
:1018800088810846808846F60401884205D0DB48F6
:10189000808845F21031884206D14FF4A070D749B4
:1018A00008804FF4F0704880A1E0D448808845F269
:1018B0001051884210D14FF43050D04908814FF474
:1018C000285048814FF42C5088814FF4F0700880E4
:1018D0004FF4487048808AE0C848808841F6631118
:1018E00088420DD12C20C54908812B2048812A200F
:1018F00088814FF4F07008804FF44870488076E09B
:101900002220BE49088120204881212088816EE064
:101910000120BA4988714FF4A0700880F0204880F7
:101920000846808849F24131884205D0B348808812
:1019300045F21031884207D12C20B04908812A2075
:1019400048812B2088813FE0AC48808846F604011E
:10195000884207D12C20A94908812B2048812A20C0
:10196000888131E0A548808845F21051884210D125
:101970004FF43050A14908814FF4285048814FF46A
:101980002C5088814FF4487008804FF4F0704880E4
:101990001AE09A48808841F6631188420DD12C20C4
:1019A000964908812A2048812B2088814FF448706D
:1019B00008804FF4F070488006E022208F490881AB
:1019C00021204881202088818C48808846F60401A7
:1019D000884205D08948808845F21031884206D176
:1019E0004FF4F070854908804FF4A07048800020C3
:1019F000FFF7BDFA10BD2DE9F04F86B004460D4645
:101A00009046994604EB0800401E86B205EB09009B
:101A1000401E87B27948808849F24131884215D00A
:101A20007648808845F2103188420FD0734880880C
:101A300046F60401884209D07048807901287BD19C
:101A40006E48808841F66311884275D16B49488998
:101A5000FEF7C6FE4FF48070664908614000486199
:101A60002012654908608020624948610861800051
:101A700008614010086140004861E0B25E490860BA
:101A800080205C494861086180000861401008615D
:101A9000400048613012584908608020554948612B
:101AA0000861800008614010086140004861F0B2A0
:101AB0005149086080204F494861086180000861F1
:101AC0004E498889FEF78CFE4FF4807049490861C1
:101AD0004000486128124849086080204549486113
:101AE0000861800008614010086140004861E8B268
:101AF0004149086080203F494861086180000861D1
:101B0000401008614000486138123B49086080205D
:101B10003849486108618000086140100861400050
:101B20004861F8B234490860802032494861086150
:101B30008000086177E1FFE73048808841F6631153
:101B400088427DD12D480088A0EB0800001B84B29C
:101B500005EB0900401E1FFA80F928494889FEF765
:101B60003FFE4FF480702349086140004861201215
:101B70002149086080201F49486108618000086190
:101B80004010086140004861E0B21B4908608020B5
:101B900018494861086180000861401008614000F0
:101BA000486104EB0800401E0012134908608020C1
:101BB00010494861086180000861401008614000D8
:101BC000486104EB0800401EC0B20B490860802049
:101BD0000849486108618000086108498889FEF762
:101BE000FFFD4FF4807003490861400048612812EE
:101BF000014905E0001001400C0C01405C00002090
:101C000008608020FE49486108618000086140103A
:101C1000086140004861E8B2FA4908608020F8494C
:101C20004861086180000861401008614000486117
:101C30004FEA2920F34908608020F149486100E01B
:101C400011E00861800008614010086140004861AF
:101C500009F0FF00EB4908608020E949486108610C
:101C600080000861DFE0E848808845F21051884232
:101C70007ED1E5494889FEF7B3FD4FF48070E04915
:101C80000861400048612012DE4908608020DC497C
:101C90004861086180000861DB494989491C88B2B4
:101CA000FEF79EFD4FF48070D54908614000486101
:101CB000E0B2D44908608020D149486108618000C1
:101CC0000861D1494989891C88B2FEF789FD4FF422
:101CD0008070CB490861400048613012C9490860F2
:101CE0008020C7494861086180000861C649498968
:101CF000C91C88B2FEF774FD4FF48070C0490861BA
:101D000040004861F0B2BF4908608020BC4948618A
:101D1000086180000861BC498889FEF761FD4FF4C5
:101D20008070B7490861400048612812B5490860D1
:101D30008020B3494861086180000861B2498989FF
:101D4000491C88B2FEF74CFD4FF48070AC49086125
:101D500040004861E8B2AB4908608020A84948616A
:101D6000086180000861A8498989891C88B200E05F
:101D700026E0FEF735FD4FF48070A1490861400070
:101D8000486138129F49086080209D494861086178
:101D9000800008619C498989C91C88B2FEF720FD32
:101DA0004FF480709649086140004861F8B2954947
:101DB000086080209249486108618000086132E033
:101DC0009148807901280ED1AA46BB468E480088EA
:101DD000801B401E80B201908B480088001B401E73
:101DE00080B2009003E0A246B346019500975020D0
:101DF00005905120049052200390532002905146A8
:101E00000598FEF73AFD59460498FEF736FD01990C
:101E10000398FEF732FD00990298FEF72EFD294641
:101E20002046FEF76EFD06B0BDE8F08F70B50446A3
:101E3000002675480588408845437348808846F6E3
:101E40000401884216D170488079012812D10020FF
:101E50006D4988712A2048812B20888100210846FD
:101E6000FEF74FFD0120684988712B2048812A2008
:101E7000888103E000210846FEF743FDFEF719FDC7
:101E800000260DE04FF480705D4908614000486114
:101E90005C48046080204861086180000861761C0D
:101EA000AE42EFD370BD08B50121192001F0FCFA54
:101EB0000121564801F00DF94FF4F860ADF800002B
:101EC00010208DF8030003208DF8020069464C486D
:101ED00001F02EF84FF4F861494801F0D6F84FF6BA
:101EE000FF70ADF80000694646480C3801F020F854
:101EF0004FF6FF7143480C3801F0C7F8322002F06A
:101F00000CFE01210020FEF7B8FC322002F005FE95
:101F10000020FEF7C6FC3C49888008468088FF28E0
:101F20000ADB084680884FF6FF71884204D03648A5
:101F30008088B0F5134F62D1D320FEF751FCFEF735
:101F40006BFCFEF769FCFEF767FC2F4988800846AA
:101F500080884FF6FF7101EA00202B498880FEF748
:101F60005BFC29498988084327498880084680887E
:101F700049F24131884242D0BF20FEF731FCFEF7E2
:101F80004BFCFEF749FCFEF747FCFEF745FC1E49FB
:101F90008880084680884FF6FF7101EA00201A49C0
:101FA0008880FEF739FC18498988084316498880DB
:101FB0000846808846F6040188427CD0D420FEF78B
:101FC0000FFCFEF729FCFEF727FCFEF725FC0E4967
:101FD0008880084680884FF6FF7101EA00200A4990
:101FE0008880FEF719FC08498988084306498880DB
:101FF0000846808845F2103188425CD008E05AE0FB
:10200000001001400C0C01405C0000200002300078
:102010004FF45A40FEF7E4FBFEF7FEFB4FF45B4043
:10202000FEF7DEFBFEF7F8FBF9498880084680885A
:102030004FF6FF7101EA0020F54988804FF45C40BB
:10204000FEF7CEFBFEF7E8FBF14989880843F0492B
:10205000888008468088B0F5004F02D145F21050C4
:102060008880EB48808845F21051884223D0A12017
:10207000FEF7B6FBFEF7D0FBE5498880FEF7CCFB08
:10208000E3498880084680884FF6FF7101EA002006
:10209000DF498880FEF7C0FBDD4989880843DC49B9
:1020A00088800846808845F26171884203D141F6F4
:1020B0006310D7498880D6488188D6A002F0FCFDFD
:1020C000D348808849F2413188427CD1CF20FEF745
:1020D00087FB0020FEF792FBC120FEF78FFB30202C
:1020E000FEF78CFBED20FEF77BFB6420FEF786FB02
:1020F0000320FEF783FB1220FEF780FB8120FEF712
:102100007DFBE820FEF76CFB8520FEF777FB1020B7
:10211000FEF774FB7A20FEF771FBCB20FEF760FB25
:102120003920FEF76BFB2C20FEF768FB0020FEF742
:1021300065FB3420FEF762FB0220FEF75FFBF72011
:10214000FEF74EFB2020FEF759FBEA20FEF748FB86
:102150000020FEF753FB0020FEF750FBC020FEF7E7
:102160003FFB1B20FEF74AFBC120FEF739FB012095
:10217000FEF744FBC520FEF733FB3020FEF73EFBA5
:102180003020FEF73BFBC720FEF72AFBB720FEF707
:1021900035FB3620FEF724FB4820FEF72FFB3A20C4
:1021A000FEF71EFB5520FEF729FBB120FEF718FBBA
:1021B0000020FEF723FB1A20FEF720FBB620FEF7D7
:1021C0000FFB0A2000E097E0FEF718FBA220FEF7C5
:1021D00015FBF220FEF704FB0020FEF70FFB262084
:1021E000FEF7FEFA0120FEF709FBE020FEF7F8FA01
:1021F0000F20FEF703FB2A20FEF700FB2820FEF746
:10220000FDFA0820FEF7FAFA0E20FEF7F7FA08208A
:10221000FEF7F4FA5420FEF7F1FAA920FEF7EEFAE1
:102220004320FEF7EBFA0A20FEF7E8FA0F20FEF74C
:10223000E5FA0020FEF7E2FA0020FEF7DFFA0020C0
:10224000FEF7DCFA0020FEF7D9FAE120FEF7C8FA23
:102250000020FEF7D3FA1520FEF7D0FA1720FEF77C
:10226000CDFA0720FEF7CAFA1120FEF7C7FA0620BA
:10227000FEF7C4FA2B20FEF7C1FA5620FEF7BEFA8D
:102280003C20FEF7BBFA0520FEF7B8FA1020FEF757
:10229000B5FA0F20FEF7B2FA3F20FEF7AFFA3F2063
:1022A000FEF7ACFA0F20FEF7A9FA2B20FEF798FAFA
:1022B0000020FEF7A3FA0020FEF7A0FA0120FEF7A7
:1022C0009DFA3F20FEF79AFA2A20FEF789FA0020AD
:1022D000FEF794FA0020FEF791FA0020FEF78EFA3E
:1022E000EF20FEF78BFA1120FEF77AFA782002F041
:1022F00014FC2920FEF774FA0020FFF79EFA012053
:10230000484908604FF6FF70FFF790FD08BD2DE9C2
:10231000FC4F05460E4617469846DDF82C900020E7
:1023200001903B48808846F60401884229D138480C
:102330008079012825D1AB46354635480088C01B39
:10234000401E86B2474632480088A0EB0B00401E74
:102350001FFA80F800202E4988712A2048812B20FE
:10236000888143463A4631462846CDF80090FFF72B
:10237000CEFF0120264988712B2048812A208881A0
:1023800027E0781B401C80B2019034461FE02146B4
:102390002846FEF7B6FAFEF78CFA4FF0000A11E075
:1023A0004FF4807020490861400048611F48C0F820
:1023B0000090802048610861800008610AF10100F6
:1023C0001FFA80FA01988245EADB601C84B244451A
:1023D000DDDDBDE8FC8F2DE9F84F07460D46904640
:1023E0009946DDF828B0A8EB0700401C1FFA80FAD8
:1023F000A9EB0500401C80B20090002430E02819B1
:1024000081B23846FEF77DFAFEF753FA002623E044
:102410005C000020204C43442049443A25780D0AB2
:1024200000000000A8012242001001400C0C0140F5
:102430004FF48070FE4908614000486104FB0A6067
:102440003BF81000FB4908608020F94948610861A9
:1024500080000861701C86B25645E9DB601C84B2BE
:1024600000988442CBDBBDE8F88F2DE9FF4F84B0A4
:1024700081468A460020039002900698A0EB090549
:102480000798A0EB0A06CDF80490CDF800A0002D27
:1024900001DD012705E00DB9002702E04FF0FF370D
:1024A0006D42002E02DD4FF0010806E016B94FF034
:1024B000000802E04FF0FF387642B54201DD2C46BD
:1024C00000E034464FF0000B21E0009A91B2019AEF
:1024D00090B2FEF77FFF039828440390029830449F
:1024E00002900398A04205DD0398001B0390019819
:1024F000384401900298A04205DD0298001B02902A
:102500000098404400900BF101001FFA80FB601C12
:102510008345DADD08B0BDE8F08FF0B504460D461E
:1025200016461F462B46324629462046FFF79DFF9A
:102530003B46224629462046FFF797FF3B46324658
:1025400039462046FFF791FF3B4632462946304642
:10255000FFF78BFFF0BD2DE9F04306460F4690468E
:10256000002445460320A0EB48093CE07A1B91B2C9
:10257000321990B2FEF72EFF3A1B91B2721990B247
:10258000FEF728FF3A1991B2721990B2FEF722FFB6
:102590007A1991B2321990B2FEF71CFF7A1991B2F2
:1025A000321B90B2FEF716FF3A1991B2721B90B22D
:1025B000FEF710FF7A1B91B2321B90B2FEF70AFFB2
:1025C0003A1B91B2721B90B2FEF704FF641CB9F182
:1025D000000F03DAA000801D814404E0601B80002E
:1025E0000A3081446D1EAC42C0DDBDE8F0832DE9A8
:1025F000F84F80460E4617461C46B3462046E31762
:1026000004EB5373DB1021464FEAE47C04EB5C7C63
:102610004FEAEC0CA4EBCC0CBCF1000F02D04FF055
:10262000010C01E04FF0000C6344224604EBD27C25
:102630004FEA6C0C03FB0CF3DBB20093A7F1200014
:10264000C7B2002556E00C2C07D107EB47007A49AA
:1026500001EB800010F8059013E0102C05D17748AD
:1026600000EB071010F805900BE0182C07D107EBD2
:10267000C700734901EB800010F8059001E0BDE848
:10268000F88F4FF0000A2FE009F0800030B16D485C
:10269000028831464046FEF7B7FE07E00A9828B99F
:1026A0006948028831464046FEF7AEFE4FEA49606F
:1026B0004FEA1069701C86B264484088B04200DC62
:1026C000DDE7A6EB0B00A0420AD15E4608F101004F
:1026D0001FFA80F85D480088404500DCCFE706E03F
:1026E0000AF1010000F0FF0ABAF1080FCCDB00BFCD
:1026F000681CC5B200988542A5DB00BFBFE710B5D6
:102700000246012000E050430B00A1F10104E1B2B8
:10271000F9D110BD2DE9FF4F81B0074691461E4605
:102720000E9D4FF0000A002439E0301B401EC1B25C
:102730000A20FFF7E4FFB9FBF0F00A21B0FBF1F249
:1027400001FB1208BAF1000F16D1701EA04213DD72
:10275000B8F1000F0ED10020AB4605EBDB7149103C
:1027600001FB0471009088B22B4620220299FFF7EA
:102770003EFF12E04FF0010A0020AB4605EBDB7193
:10278000491001FB0471009088B208F13001CAB20F
:102790002B460299FFF72BFF00BF601CC4B2B44266
:1027A000C3DB05B0BDE8F08F2DE9FF4F82B00646D0
:1027B00092461F46DDE90F480020019000255EE0AB
:1027C000781B401EC1B20A20FFF799FFBAFBF0F058
:1027D0000A21B0FBF1F201FB12090198C0BB781E7F
:1027E000A84238DDB9F1000F33D108F0800078B18C
:1027F00008F00100A34604EBDB71491001FB056101
:10280000009088B2234630220399FFF7F0FE0EE0D5
:1028100008F00100A34604EBDB71491001FB0561E0
:10282000009088B2234620220399FFF7E0FE24E0BF
:10283000001001400C0C014084510008F8550008BC
:10284000E85B0008180000201A0000205C0000204F
:1028500001E00120019008F00100A34604EBDB71C8
:10286000491001FB0561009088B209F13001CAB23C
:1028700023460399FFF7BBFE00BF681CC5B2BD42EB
:102880009EDB06B0BDE8F08F2DE9F84F04460D46FB
:1028900090469946DDE90B7A0A9E04F0FF0B08EB9F
:1028A00004001FFA80F809EB05001FFA80F916E012
:1028B000444502DB5C46A81985B24D4500DB14E0B7
:1028C000CDF800A03A78334629462046FFF78FFE20
:1028D000304606EBD07104EB61018CB27F1C387876
:1028E0007E2802DC38782028E2DA00BFBDE8F88FC5
:1028F00000B587B00121142000F0D6FD1C20ADF8F2
:10290000180010208DF81B0003208DF81A0006A96E
:10291000B74800F00DFB1020ADF818008DF81B0033
:1029200003208DF81A0006A9B24800F001FB10211F
:10293000B04800F0AAFB0220ADF8180048208DF83E
:102940001B0003208DF81A0006A9A94800F0F0FA30
:102950001E21A74800F099FB00F087F90021A64846
:1029600000F0D1FE0020ADF804004FF48270ADF805
:1029700006000020ADF80800ADF80A00ADF80C0024
:102980004FF40070ADF80E003820ADF810000020B4
:10299000ADF812000720ADF8140001A9964800F028
:1029A0000DFE00209549086001209549C1F890016D
:1029B00007B000BD2DE9F04107460D461646002040
:1029C00090490860384600F029F98046002405E067
:1029D000FF2000F023F92855601CC4B2B442F7DB95
:1029E0000120884908604046BDE8F0812DE9F041AA
:1029F00007460C461546002082490860384600F01C
:102A00000DF98046002605E014F8010B00F006F9E8
:102A1000701CC6B2AE42F7DB01207A49086040461E
:102A2000BDE8F0811CB578A103C9CDE900011020F3
:102A300000F051F9052269463020FFF7D7FF052243
:102A400069461020FFF7B6FF002406E01DF80400D9
:102A5000A52800D003E0601CC4B2052CF6DB00BF43
:102A6000052C01D001201CBD0020FCE770B50546F7
:102A70000C46002063490860284600F0CFF806465F
:102A8000204600F0CBF801205D49C1F890013046A6
:102A900070BD70B5044600205A490860204600F019
:102AA000BDF8FF2000F0BAF8054601205449C1F8EE
:102AB0009001284670BD70B50546102000F00BF956
:102AC00000204E49086020222946A020FFF78EFFF3
:102AD00001204F49C1F8900100BF48488C38006878
:102AE0000028FAD10720FFF7D4FF0446214627200B
:102AF000FFF7BCFF04F0100028B1FF21E120FFF731
:102B0000B5FF102070BD04F0200008B12020F9E7C7
:102B1000FF20F7E770B50446102000F0DCF807202E
:102B2000FFF7B7FF054629462720FFF79FFF05F06F
:102B3000400050B1202221466120FFF73BFFFF21DA
:102B4000E220FFF793FF002070BD0120FCE710B5E5
:102B500000202A49086005222E492A20FFF746FF57
:102B600001212120FFF782FF01212220FFF77EFFB4
:102B700000212520FFF77AFF20213120FFF776FF83
:102B80000F212620FFF772FF0F212020FFF76EFF95
:102B900001201F49C1F8900110BD10B50020174950
:102BA000086005221C493020FFF720FF0522194943
:102BB0002A20FFF71BFF01212120FFF757FF0121EA
:102BC0002220FFF753FF1A212420FFF74FFF28216F
:102BD0002520FFF74BFF0F212620FFF747FF0E218F
:102BE0002020FFF743FF01200949C1F8900110BDE3
:102BF00000080140001001400030014090012142D6
:102C00000000224290012242A5A5A5A5A500000032
:102C100000002142496900084469000870B5054672
:102C2000002405E0601CC4B2C82C01DD002070BD8A
:102C30000221314800F0EBFD0028F3D029462E4850
:102C400000F092FD002405E0601CC4B2C82C01DD38
:102C50000020ECE70121284800F0D9FD0028F3D03E
:102C6000254800F083FDC0B2E1E708B5012141F23B
:102C7000040000F019FCE020ADF8000018208DF8E9
:102C8000030003208DF8020069461C4800F050F94B
:102C9000E0211A4800F0F9F90020194908804FF4A2
:102CA00082704880002088800220C880012008812E
:102CB00040024881382088810020C881072008828E
:102CC0000D4800F07BFC01210B4800F01CFDFF20AB
:102CD000FFF7A4FF08BD084909884FF6C7721140E5
:102CE000054A11801146098801431180114609885F
:102CF00041F0400111807047003001400008014060
:102D00006A00002008B50121242000F0CDFB4FF41B
:102D10008070ADF8000010208DF8030003208DF8BE
:102D200002006946094800F003F94FF48071074832
:102D300000F0ABF90420ADF800006946044800F04B
:102D4000F7F80421024800F0A0F908BD000801408E
:102D5000001401400948804709480047FEE7FEE7A4
:102D6000FEE7FEE7FEE7FEE7FEE7FEE7FEE7FEE73B
:102D700004480549054A064B70470000DF06000875
:102D800031010008A8010020A8070020A8030020A6
:102D9000A803002031490143314A1160704770B5E2
:102DA000002100230F22C47804B32D4C246804F4BE
:102DB000E064C4F5E064210AC1F10403CA40447828
:102DC00004FA03F18478144021430901254C067864
:102DD000A155047804F01F050124AC4005786D115D
:102DE000AD0005F1E025C5F8004109E0047804F0E4
:102DF0001F050124AC401C4D0678761145F826408D
:102E000070BD1A4A0A400243154B1B1F1A607047D7
:102E100039B1134A121D12680243114B1B1D1A606F
:102E200006E00F4A121D126882430D4B1B1D1A60EB
:102E30007047042808D14FF0E021096941F00401EE
:102E40004FF0E022116107E04FF0E021096921F025
:102E500004014FF0E0221161704700000000FA0504
:102E60000CED00E000E400E080E100E080FFFF1FE7
:102E700010B50446CC48844208D10121042000F05A
:102E80002DFB0021042000F029FB46E0C7488442C6
:102E900008D10121082000F021FB0021082000F0CA
:102EA0001DFB3AE0C248844208D10121102000F005
:102EB00015FB0021102000F011FB2EE0BD488442DC
:102EC00008D10121202000F009FB0021202000F082
:102ED00005FB22E0B848844208D10121402000F0DF
:102EE000FDFA0021402000F0F9FA16E0B3488442D0
:102EF00008D10121802000F0F1FA0021802000F0AB
:102F0000EDFA0AE0AE48844207D10121801500F0B5
:102F1000E5FA0021A01500F0E1FA10BD10B501217D
:102F2000084600F0DBFA0021012000F0D7FA10BDBE
:102F30002DE9F04102460025002600200023002450
:102F4000002791F803C00CF00F0591F803C00CF0B6
:102F5000100CBCF1000F03D091F802C04CEA05053B
:102F600091F800C0BCF1000F31D0146800202BE0B4
:102F70004FF0010C0CFA00F3B1F800C00CEA0306A4
:102F80009E4220D183004FF00F0C0CFA03F7BC4394
:102F900005FA03FC4CEA040491F803C0BCF1280FC5
:102FA00006D14FF0010C0CFA00FCC2F814C00AE084
:102FB00091F803C0BCF1480F05D14FF0010C0CFA99
:102FC00000FCC2F810C0401C0828D1D31460B1F82E
:102FD00000C0BCF1FF0F34DD546800202EE000F18A
:102FE000080C4FF0010808FA0CF3B1F800C00CEA25
:102FF00003069E4221D183004FF00F0C0CFA03F719
:10300000BC4305FA03FC4CEA040491F803C0BCF18C
:10301000280F05D100F1080C08FA0CF8C2F814804A
:1030200091F803C0BCF1480F07D100F1080C4FF034
:10303000010808FA0CF8C2F81080401C0828CED30A
:103040005460BDE8F0814FF6FF710180022181706C
:103050000421C17070470246002093680B400BB1F9
:10306000012000E0002070470146886880B2704768
:1030700002460020D3680B400BB1012000E0002085
:1030800070470146C86880B270470161704741616E
:1030900070470AB1016100E041617047C16070474B
:1030A0004FF480320A438261816182618269826960
:1030B000704702460020434B18684FF68073184053
:1030C00040EA021008433F4B186070473E49C86110
:1030D0007047F0B50A46002300240021002500F0C7
:1030E0000046B6F1004F02D1364EF16901E0354E8F
:1030F0007168C0F3034583B200F44016B6F5401F73
:1031000008D121F070612F4E766826F070662D4F41
:103110007E6012E000F48016B6F5801F06D103260B
:1031200006FA05F4A14341F0706106E0460D360150
:1031300003FA06F6B14341F0706122B1460D360143
:1031400003FA06F6314300F00046B6F1004F02D113
:103150001C4EF16101E01B4E7160F0BD30B50022E4
:103160008B071C0F0F2303FA04F2164B08338C1045
:1031700053F824309343134C08348D1044F8253011
:1031800023468C1053F824308C07240F00FA04F4E3
:1031900023430C4C08348D1044F8253030BD0A49C7
:1031A000DC3108607047000000080140000C01405D
:1031B000001001400014014000180140001C0140B3
:1031C000002001400000014000002042DF4800686C
:1031D00040F00100DD49086008464068DC490840CD
:1031E000DA49486008460068DA490840D74908606B
:1031F0000846006820F4802008600846406820F4F3
:10320000FE0048604FF41F0088607047CF4909688E
:1032100021F48031CD4A11601146096821F48021E2
:103220001160B0F5803F03D0B0F5802F0ED106E0DD
:10323000C649096841F48031C44A116007E0C349B6
:10324000096841F4A021C14A116000E000BF00BF3D
:10325000704710B501460022002300204A11012AC0
:1032600002D1BA4C236806E0022A02D1B74C236A85
:1032700001E0B64C636A01F01F02012494401C4037
:103280000CB1012000E0002010BD38B500200090F6
:103290000024002500BF3120FFF7DBFF0546009822
:1032A000401C00900098B0F5A06F01D0002DF2D026
:1032B0003120FFF7CEFF08B1012400E000242046B2
:1032C00038BD01460020A14A106820F0F80040EA0D
:1032D000C10010607047A049086070470246002096
:1032E0009A4B586820F47C1042EA01031843974B2C
:1032F0005860704798490866704701460020934A15
:10330000506820F003000843506070478F484068C1
:1033100000F00C007047014600208C4A506820F0F5
:10332000F00008435060704701460020874A50680B
:1033300020F4E06008435060704701460020834A53
:10334000506820F4605040EAC1005060704729B1D5
:103350007E4A527A02437D4B5A7204E07B4A527A8B
:1033600082437A4B5A7270477B49D8310860704764
:1033700001460020754A506820F4404008435060E0
:1033800070470021714A20321170704A82F8201073
:10339000012802D004280AD104E001216B4A20321E
:1033A000117005E00521694A2032117000E000BF6C
:1033B00000BF70476949086070476449096A014362
:1033C000624A11627047654944390860704730B5F8
:1033D00000210022002400235C4D6D6805F00C01E3
:1033E00021B1042905D0082923D105E05C4D0560F1
:1033F00022E05B4D05601FE0544D6D6805F47012CE
:10340000524D6D6805F48034022505EB92421CB9DB
:10341000544D554305600BE04C4D6D6805F4003587
:103420001DB1504D5543056002E04D4D55430560BB
:1034300002E04B4D056000BF00BF444D6D6805F0D4
:10344000F0010909484D6B5C0568DD4045603F4D62
:103450006D6805F4E061090A434D6B5C4568DD4029
:1034600085603A4D6D6805F46051C90A3E4D6B5C4C
:103470004568DD40C560354D6D6805F44041890BF8
:103480003A4D6B5CC568B5FBF3F5056130BD29B1FC
:103490002E4A526902432D4B5A6104E02B4A52696D
:1034A00082432A4B5A61704729B1284A92690243E4
:1034B000264B9A6104E0254A92698243234B9A6124
:1034C000704729B1214AD2690243204BDA6104E0F6
:1034D0001E4AD26982431D4BDA61704729B11B4AEB
:1034E000D2680243194BDA6004E0184AD26882437A
:1034F000164BDA60704729B1144A12690243134B24
:103500001A6104E0114A12698243104B1A61704734
:1035100012494039086070470F49C86470470B4929
:10352000C87170470948406A40F080700749486296
:10353000704701460020054A92680A400AB10120FE
:1035400000E0002070470149887270470010024077
:103550000000FFF8FFFFF6FE0000424280044242F6
:1035600000127A0000093D001C0000202C00002001
:1035700010B50446BE48844208D101218014FFF7EB
:10358000ADFF0021A014FFF7A9FF16E0B94884425F
:1035900008D101210014FFF7AEFF00212014FFF72E
:1035A000AAFF0AE0B448844207D10121C013FFF703
:1035B000A2FF0021E013FFF79EFF10BD10B500220F
:1035C000028802F441520B884C8823438C882343A1
:1035D000CC8823430C8923434C8923438C89234380
:1035E000CC8923431A430280838B4FF2FF7423401C
:1035F00083830B8A038210BD2DE9F04F85B0054609
:103600000C464FF0000902274FF000084FF0010B65
:103610000026B246A88B4FF240010840A883022042
:103620002884B5F81C90A068022801D100BF38E0BA
:10363000A08810B94FF0010B01E04FF0020B8D484C
:10364000854200D100E000BF6846FFF7C0FEDDF80C
:1036500000A0E088B0F5007F0AD14FEA1A2000EB05
:1036600080004000A168B0FBF1F0401D86B20BE085
:103670004FEA4B10BAFBF0F000EB80004000A1686D
:10368000B0FBF1F0401D86B20A20B6FBF0F606F062
:103690000108A6EB0800C0F34F074FF6FF7000EAE1
:1036A0000828022F01DBFF2F02DD02274FF0000860
:1036B000E08840EA080038432884A088A1890843AC
:1036C000618808432188084340F4006040EA090902
:1036D000A5F81C9005B0BDE8F08F00210180418065
:1036E0008180C180018141818181C1810721018265
:1036F00070470021018041808180C180022181606A
:1037000000218181704721B1028842F0400202808D
:1037100004E002884FF6BF731A400280704721B15F
:10372000828B42F48062828304E0828B4FF6FF3307
:103730001A408283704730B5002400230C11012504
:10374000A540ABB21AB185881D43858002E085880B
:103750009D43858030BD1AB183880B43838002E08E
:1037600083888B43838070478181704701468889B5
:1037700070474FF6FF62914204D0028842F4807293
:10378000028004E002884FF6FF631A40028070470F
:1037900021B1828842F00402828004E082884FF6E0
:1037A000FB731A408280704702884FF2FF731A4001
:1037B000028002880A4302807047018841F48051E8
:1037C0000180704721B1028842F40052028004E077
:1037D00002884DF6FF731A400280704702460020AF
:1037E000012901D0108B00E0908A70470146088AB9
:1037F0007047B1F5804F04D1028842F480420280C4
:1038000004E002884BF6FF731A40028070470246BC
:10381000002013890B400BB1012000E0002070470D
:10382000CA4302817047F0B50246002000240023FD
:10383000002501F00F070126BE40B4B20B1101268E
:103840009E40B3B2968806EA03051689264016B153
:103850000DB1012000E00020F0BD10B5002201F004
:103860000F040123A3409AB2D343038110BD00008B
:103870000030014000380040003C004010B50446D4
:10388000FE48844208D10121C014FFF727FE002121
:10389000E014FFF723FEC4E0B4F1804F08D101210A
:1038A0000846FFF728FE00210120FFF724FEB8E0BC
:1038B000F348844208D101210220FFF71CFE0021B9
:1038C0000220FFF718FEACE0EE48844208D1012147
:1038D0000420FFF710FE00210420FFF70CFEA0E0FB
:1038E000E948844208D101210820FFF704FE0021A5
:1038F0000820FFF700FE94E0E448844208D101214B
:103900001020FFF7F8FD00211020FFF7F4FD88E0FC
:10391000DF48844208D101212020FFF7ECFD00217F
:103920002020FFF7E8FD7CE0DA48844208D101213D
:103930004014FFF7D3FD00216014FFF7CFFD70E0C6
:10394000D548844209D10121C804FFF7C7FD0021F1
:103950004FF40020FFF7C2FD63E0D048844209D154
:1039600001210805FFF7BAFD00214FF48010FFF791
:10397000B5FD56E0CA48844209D101214805FFF748
:10398000ADFD00214FF40010FFF7A8FD49E0C54848
:10399000844208D101214020FFF7ADFD00214020E5
:1039A000FFF7A9FD3DE0C048844208D101218020F5
:1039B000FFF7A1FD00218020FFF79DFD31E0BB480E
:1039C000844208D101218015FFF795FD0021A01543
:1039D000FFF791FD25E0B648844209D10121080492
:1039E000FFF77CFD00214FF48030FFF777FD18E0F2
:1039F000B048844209D101214804FFF76FFD00213E
:103A00004FF40030FFF76AFD0BE0AB48844208D169
:103A100001218804FFF762FD00214FF48020FFF7A9
:103A20005DFD10BD00220288944B98420ED0994B48
:103A300098420BD0B0F1804F08D0914B984205D0FE
:103A4000904B984202D0904B984204D14FF68F731E
:103A50001A404B881A438D4B984207D08C4B9842A2
:103A600004D04FF6FF431A40CB881A4302808B885C
:103A700083850B880385814B98420BD0854B9842F8
:103A800008D08B4B984205D08A4B984202D08A4B83
:103A9000984201D10B7A038601238382704770B567
:103AA000002400220023058C4FF6FE763540058465
:103AB000028C8388048B4FF68F752C40B51E2C40EA
:103AC0000D882C43751E2A400D892A434D882A43B0
:103AD0006A4DA8420BD06F4DA84208D0744DA84241
:103AE00005D0744DA84202D0734DA84213D14FF6B1
:103AF000F7752A404D892A434FF6FB752A408D8879
:103B00002A434FF6FF652B404FF6FF552B408D891A
:103B10002B43CD892B4383800483CD888586028403
:103B200070BD70B5002400220023058C4FF6EF769F
:103B300035400584028C8388048B48F6FF752C4041
:103B40004FF6FF452C400D884FF6FF7606EA052517
:103B50002C434FF6DF752A400D8906EA05152A43E6
:103B60004D8806EA05152A43444DA84202D0494D26
:103B7000A8421DD14FF67F752A404D894FF6FF763A
:103B800006EA05152A434FF6BF752A408D8806EAD6
:103B900005152A434FF6FF352B404FF2FF752B409A
:103BA0008D8906EA85052B43CD8906EA85052B43D9
:103BB00083800483CD880587028470BD70B500249E
:103BC00000220023058C4FF6FF6635400584028CE9
:103BD0008388848B4FF68F752C404FF6FC752C40F4
:103BE0000D882C434FF6FF552A400D894FF6FF767E
:103BF00006EA05252A434D8806EA05252A431F4D76
:103C0000A84202D0234DA8421DD14FF2FF752A4091
:103C10004D894FF6FF7606EA05252A434FF6FF3514
:103C20002A408D8806EA05252A434EF6FF752B406B
:103C30004DF6FF752B408D8906EA05152B43CD897E
:103C400006EA05152B4383808483CD88858702840B
:103C500070BD70B5002200230024058C4EF6FF765F
:103C600035400584038C8488828B48F6FF752A4092
:103C70004FF6FF452A400D8820E00000002C01404F
:103C80000004004000080040000C0040001000400C
:103C90000014004000340140004C0140005001403D
:103CA0000054014000180040001C0040002000406B
:103CB0000040014000440140004801404FF6FF76BB
:103CC00006EA05252A434DF6FF752B400D8906EAC5
:103CD00005352B434D8806EA05352B43FA4DA8429E
:103CE00002D0FA4DA84208D14BF6FF752C408D89C1
:103CF0004FF6FF7606EA85152C4384808283CD88B3
:103D0000A0F84050038470BD828B4FF2FF331A40FD
:103D10008283828B4FF6FF7303EA01231A43828367
:103D20007047F0B50C461546002200210026078C8E
:103D30004EF6FF7C07EA0C070784828B018C4FF656
:103D4000FF7707EA043640F6FF473A404FF6FF7721
:103D500007EA05273A434FF6FF7707EA03373A4366
:103D6000D94FB8420ED0D94FB8420BD0B0F1804FE6
:103D700008D0D74FB84205D0D64FB84202D0D64F60
:103D8000B84206D14DF6FF77394046F480573943A3
:103D900005E047F6FF57394044F4805739438283A2
:103DA0000184F0BD828B4FF6F3731A408283828BBD
:103DB0000A4382837047F0B50C4615460022002165
:103DC0000026078C4FF6FF6C07EA0C070784828BEE
:103DD000018C4FF6FF7707EA04264FF60C773A403E
:103DE0004FF6FF7707EA03172F433A43B64FB8421F
:103DF0000ED0B64FB8420BD0B0F1804F08D0B44FC0
:103E0000B84205D0B34FB84202D0B34FB84206D142
:103E10004FF6FF57394046F48077394305E04FF2BB
:103E2000FF57394044F48077394382830184F0BDE1
:103E3000028B4FF2FF331A400283028B4FF6FF735F
:103E400003EA01231A4302837047F0B50C46154676
:103E5000002200210026078C4FF6EF7C07EA0C07B2
:103E60000784028B018C4FF6FF7707EA041640F6B1
:103E7000FF473A404FF6FF7707EA03373A434FF6DA
:103E8000FF7707EA05273A438F4FB8420ED08F4F8E
:103E9000B8420BD0B0F1804F08D08D4FB84205D05A
:103EA0008C4FB84202D08C4FB84206D14FF6DF7724
:103EB000394046F01007394305E04FF65F77394047
:103EC00044F01007394302830184F0BD028B4FF6A2
:103ED000F3731A400283028B0A4302837047F0B5E2
:103EE0000C46154600220021068C4FF6FE773E4018
:103EF0000684028B018C4FF60C7632407E1C06EA5B
:103F000003162E433243704EB0420ED06F4EB04275
:103F10000BD0B0F1804F08D06D4EB04205D06D4E41
:103F2000B04202D06C4EB04206D14FF6FD76314021
:103F300044F00106314305E04FF6F576314044F098
:103F40000106314302830184F0BD70B505460C467D
:103F50005D4885420ED05D4885420BD0B5F1804F5B
:103F600008D05B48854205D05A48854202D05A485D
:103F7000854200D100E000BF208850B92389A28883
:103F800061882846FFF7ABFFE1882846FFF79EFFD0
:103F900025E0208804280AD12389A2886188284640
:103FA000FFF753FFE1882846FFF742FF17E020881C
:103FB00008280AD12389A28861882846FFF7FBFEDA
:103FC000E1882846FFF7EEFE09E02389A288618890
:103FD0002846FFF7A6FEE1882846FFF795FE70BD4C
:103FE0002DE9F04105460C4600260127608808B9F6
:103FF000022600E00026A088012801D1022700E067
:1040000001272088A0B92389A28861882846FFF764
:1040100066FFE1882846FFF759FF23893A46314673
:104020002846FFF712FFE1882846FFF701FF13E05B
:104030002389A28861882846FFF707FFE188284680
:10404000FFF7F6FE23893A4631462846FFF747FF39
:10405000E1882846FFF73AFFBDE8F0810A884B88DF
:104060001A438B881A43CB881A430B891A434B890E
:104070001A438B891A43A0F8442070474FF6FF710A
:10408000818000210180C180418001727047002140
:10409000018041808180C180018141818181C18114
:1040A0007047002101804180012181800021C18071
:1040B000018170470021018041808180C1800181A0
:1040C0004181818170470000002C01400034014093
:1040D0000004004000080040000C004021B10288AC
:1040E00042F00102028004E002884FF6FE731A409B
:1040F0000280704731B1B0F8442042F40042A0F889
:10410000442005E0B0F84420C2F30E02A0F8442099
:1041100070471AB183890B43838102E083898B4303
:10412000838170478182704741EA0203A0F84830DA
:1041300070471AB183890B43838102E083898B43E3
:104140008381704701894FF6F872114001817047F1
:104150000A46002101894FF68F73194011430181EE
:10416000704730B504460D4629462046FFF7F0FF5C
:10417000208940F00700208130BD2DE9F041044640
:104180000D4616461F46602D06D13B46012231469C
:104190002046FFF75AFE05E03B4601223146204605
:1041A000FFF79DFE29462046FFF7D2FF208940F009
:1041B00007002081BDE8F08130B50C46002101895F
:1041C000C9B24FF6FF7505EA032515432543294378
:1041D000018130BD2DE9F04105460E46174698464F
:1041E000002443463A4631462846FFF7E5FF2C892E
:1041F0004FF6F870044044F007044FF68F70044007
:1042000044F070042C81BDE8F081F0B504460D4601
:1042100016461F463B46324629462046FFF7CCFF4E
:10422000208940F480402081F0BD01858282704762
:104230000A46002101884FF68F731940114301800F
:104240007047F0B50C4615461E460021002200239B
:104250000189028B038C4FF6F877394021434FF6E2
:10426000FC473A4040F201173A434FF6DD773B40B6
:104270004FF6FF7707EA06172F433B43018102837E
:104280000384F0BD0A460021018B4FF68F7319405D
:104290001143018370470A460021018B48F6FF73E2
:1042A00019404FF6FF7303EA022319430183704755
:1042B0000A460021818B4FF68F7319401143818389
:1042C00070470A460021818B48F6FF7319404FF66C
:1042D000FF7303EA022319438183704721B10288E7
:1042E00042F08002028004E002884FF67F731A4099
:1042F0000280704721B1828842F00402828004E08B
:1043000082884FF6FB731A408280704721B1828801
:1043100042F00802828004E082884FF6F7731A4068
:104320008280704721B1828842F00102828004E0DD
:1043300082884FF6FE731A40828070470A46002139
:10434000018B4FF6F77319401143018370470A46FA
:104350000021018B4FF2FF7319404FF6FF7303EA00
:1043600002231943018370470A460021818B4FF6CF
:10437000F77319401143818370470A460021818BEE
:104380004FF2FF7319404FF6FF7303EA02231943FC
:10439000818370470A460021018B4FF6FB73194059
:1043A0001143018370470A460021018B4FF6FF330A
:1043B00019404FF6FF7303EA022319430183704744
:1043C0000A460021818B4FF6FB731940114381830C
:1043D00070470A460021818B4FF6FF3319404FF694
:1043E000FF7303EA02231943818370470A460021C1
:1043F000018B4FF67F7319401143018370470A46C2
:104400000021018BC1F30E014FF6FF7303EA022373
:104410001943018370470A460021818B4FF67F7351
:1044200019401143818370470A460021818BC1F3F3
:104430000E014FF6FF7303EA02231943818370478D
:104440000A460021018C4FF6FD7319401143018487
:1044500070470A460021018C4FF6F773194011434B
:10446000018470470A460021018C4FF6DF73194022
:104470004FF6FF7303EA02131943018470470A469B
:104480000021018C4FF67F7319404FF6FF7303EA4A
:1044900002131943018470470A460021018C4FF62C
:1044A000FF5319404FF6FF7303EA022319430184B7
:1044B00070470A460021018C4FF2FF7319404FF6F6
:1044C000FF7303EA02231943018470470A4600215F
:1044D000018C4DF6FF7319404FF6FF7303EA023368
:1044E00019430184704730B5002301248C40A3B2E6
:1044F000048C9C430484048C02FA01F5ADB22C4375
:10450000048430BD30B5002304248C40A3B2048C55
:104510009C430484048C02FA01F5ADB22C4304845C
:1045200030BD70B503460020002418461830012520
:104530008D40ACB21D8CA5431D8409B1082909D159
:1045400000EB6100056825F07005056005681543FE
:1045500005600EE00D1FC5F34E052844056825F4DF
:10456000E045056005684FF6FF7606EA022635430A
:10457000056070BD21B1028842F00202028004E0B1
:1045800002884FF6FD731A400280704721B10288FD
:1045900042F00402028004E002884FF6FB731A40E6
:1045A0000280704721B1828842F08002828004E05C
:1045B00082884FF67F731A408280704702884FF6D8
:1045C000F7731A40028002880A430280704782888B
:1045D0004FF68F731A40828082880A438280704728
:1045E00002894FF6F8731A40028102890A43028158
:1045F000704702894FF67F731A40028102890A438D
:104600000281704781847047818570478186704739
:104610000187704781877047A0F840107047028873
:104620004FF6FF431A40028002880A430280704717
:104630000146888E70470146088F70470146888F73
:1046400070470146B1F8400070470146888C7047BA
:104650000146088D704702460020138A0B400BB1BB
:10466000012000E000207047CA430282704730B545
:104670000246002000230024158A05EA01039589DB
:1046800005EA010413B10CB1012000E0002030BDA7
:10469000CA4302827047000010B50446FB488442BA
:1046A00009D101218803FEF719FF00214FF4804052
:1046B000FEF714FF32E0F648844209D10121480494
:1046C000FEF719FF00214FF40030FEF714FF25E03C
:1046D000F048844209D101218804FEF70CFF002133
:1046E0004FF48020FEF707FF18E0EB48844209D121
:1046F0000121C804FEF7FFFE00214FF40020FEF761
:10470000FAFE0BE0E548844208D101210805FEF7D6
:10471000F2FE00214FF48010FEF7EDFE10BD2DE9F2
:10472000F04786B005460E460024A24600BFA146CB
:104730000027B08900B100BF2F462C8A4CF6FF70CD
:104740000440F08804432C82AC894EF6F3100440F8
:10475000B08831890843718908430443AC81AC8A2D
:104760004FF6FF400440B0890443AC8201A8FEF735
:104770002EFEC648874202D1DDF810A001E0DDF828
:104780000CA0A88900F4004040B10AEBCA0000EB7D
:104790000A1031684900B0FBF1F807E00AEBCA00E3
:1047A00000EB0A1031688900B0FBF1F86420B8FB17
:1047B000F0F004012009642101FB1089A88900F4AC
:1047C000004040B1322000EBC900B0FBF1F000F036
:1047D0000700044308E0322000EB09106421B0FB1D
:1047E000F1F000F00F0004432C8106B0BDE8F08723
:1047F0004FF41651016000218180C18001810C219C
:10480000418100218181704710B502460020108A45
:104810004FF2FF0318400B884C8823438C882343B6
:10482000CC8823431843108210BD002101804180B1
:104830008180C180704721B1828942F40052828117
:1048400004E082894DF6FF731A4082817047F0B50B
:104850000346002400260025002040F66A17B942CE
:1048600000D100BF1846C1F3421401F01F06012712
:1048700007FA06F5012C01D10C3004E0022C01D11D
:10488000103000E014301AB107682F43076002E0CF
:104890000768AF430760F0BD1AB1838A0B43838278
:1048A00002E0838A8B4383827047028A4FF6F0735B
:1048B0001A400282028A0A430282704782894FF2BA
:1048C000FF731A40828182890A438281704721B135
:1048D000828942F00202828104E082894FF6FD73F0
:1048E0001A4082817047028A4FF6DF731A400282B3
:1048F000028A0A430282704721B1028A42F480424E
:10490000028204E0028A4BF6FF731A40028270476B
:10491000C1F308028280704701468888C0F308000E
:104920007047818941F0010181817047028BD2B2C9
:104930000283028B42EA012202837047028B02F457
:104940007F420283028B0A430283704721B1828A2D
:1049500042F02002828204E0828A4FF6DF731A401E
:104960008282704721B1828A42F01002828204E082
:10497000828A4FF6EF731A408282704721B1828A91
:1049800042F00802828204E0828A4FF6F7731A40EE
:104990008282704721B1828942F40042828103E021
:1049A0008289C2F30E028281704721B1828A42F469
:1049B0000062828204E0828A4FF2FF731A40828290
:1049C0007047828A4FF6FB731A408282828A0A43BA
:1049D0008282704721B1828A42F00202828204E020
:1049E000828A4FF6FD731A40828270470246002089
:1049F000B1F5007F00D100BF13880B400BB101203F
:104A000000E00020704701F40072B2F5007F00D191
:104A100000BFCA430280704770B5024600240023DD
:104A20000025002040F66A16B14200D100BFC1F354
:104A3000421501F01F03012606FA03F3012D02D1EE
:104A40009689334006E0022D02D1168A334001E0F8
:104A5000968A33400C12012606FA04F41688344074
:104A600013B10CB1012000E0002070BD10B5002290
:104A7000002340F66A14A14200D100BF0A120124AB
:104A80009440A3B2DC43048010BD00000038014014
:104A90000044004000480040004C004000500040EE
:104AA00010B56FF00400FEF7C4F92E4800682E49D7
:104AB000B0FBF1F02D4908700846007800EB40018A
:104AC000C1EBC0104FF6FF7101EAC0002849088011
:104AD00010BD0146254A12784A434FF0E0235A613F
:104AE00000229A611A46126942F001021A6100BF5F
:104AF0004FF0E022106900F001021AB100F4803298
:104B0000002AF5D04FF0E022126922F001024FF0A6
:104B1000E0231A6100229A6170470146144A128804
:104B20004A434FF0E0235A6100229A611A46126903
:104B300042F001021A6100BF4FF0E022106900F05C
:104B400001021AB100F48032002AF5D04FF0E022C1
:104B5000126922F001024FF0E0231A6100229A61EB
:104B6000704700000400002000127A00300000208E
:104B700032000020014600BF704700BF494A12883A
:104B800002F04002002AF9D0C2B2464B1B1D1A8027
:104B9000704710B586B00446012144F20400FEF7C8
:104BA00083FC4FF40070ADF8140003208DF816005C
:104BB00018208DF8170005A93B48FEF7B9F94FF406
:104BC0008060ADF8140004208DF8170005A9364860
:104BD000FEF7AEF925208DF8000003208DF80100C6
:104BE0008DF8020001208DF803006846FEF7D7F823
:104BF00001940020ADF80800ADF80A00ADF80C00F3
:104C0000ADF810000C20ADF80E0001A92548FFF703
:104C100086FD012240F225512248FFF718FE0121AE
:104C20002048FFF708FE06B010BD10B540F2255130
:104C30001C48FFF7F1FE10B31A48FFF76DFEC4B22F
:104C40001A48008800F40040C8B91848008800F4E9
:104C5000804060B10A2C03D000201449088020E075
:104C60001248008840F400401049088019E00D2CDB
:104C700006D10E48008840F480400C49088010E0BE
:104C80000A480088C0F30D0009490C540748008801
:104C9000401C0649088008460088C72801DD00201E
:104CA000088010BD00380140000801403800002095
:104CB0007C000020704700000FB4044910B503AA1F
:104CC000029800F0C3F810BC5DF814FB340000201B
:104CD0002DE9F0410E460446002020622046E1689E
:104CE000884730B3252805D0D4E901219047206AB0
:104CF000401CF2E7E168204600278847050018D0ED
:104D0000A5F14100192802D820354FF4006732463A
:104D1000294620462760FBF745FA40B1012804D018
:104D2000F61D26F007060836D8E7361DD6E72846D2
:104D3000DAE7206ABDE8F08170B504460D462146E9
:104D40001068AFF300802188090502D50F4A7A4424
:104D500002E00E4A7A440E32002104F1240305E0F9
:104D600000F00F060009965D5E54491C0028F7D13B
:104D700020780023000704D5702D02D009B102234A
:104D800011322046BDE8704000F006B8FC1B000060
:104D900070477047704770472DE9F0470D469946B8
:104DA0009246044600F124080168880604D5E069AB
:104DB00021F01001216000E00120A84201DD471B25
:104DC00000E00027A1697A1902EB0900081AA06126
:104DD0002078C00602D42046AFF30080002608E009
:104DE000D4E901211AF806009047206A401C761C7D
:104DF00020624E45F4DB2078C0060AD52046AFF38A
:104E0000008006E0D4E9012130209047206A401C50
:104E10002062381EA7F10107F4DC07E0D4E9012184
:104E200018F805009047206A401C2062281EA5F152
:104E30000105F3DC2046AFF300802078000602D5A0
:104E40000220BDE8F0870120FBE70000074B70B5AA
:104E50000D467B4400F011F80446284600F020F887
:104E600010B14FF0FF3070BD204670BD25FDFFFF33
:104E700001694A1C02610878704700B58FB0CDE91E
:104E800001310021059105497944CDE9031011460E
:104E90006846FFF71DFF0FB000BD0000E5FFFFFFF4
:104EA000007B00F080007047754600F029F8AE46A0
:104EB00005006946534620F00700854618B020B526
:104EC000FDF756FFBDE820404FF000064FF0000709
:104ED0004FF000084FF0000B21F00701AC46ACE8A2
:104EE000C009ACE8C009ACE8C009ACE8C0098D460F
:104EF00070470446AFF300802046FBF765F90000D9
:104F000000487047440100204FEA1153A3F5806325
:104F1000D3F11E03A8BFD3F1200C08DB4FF00042F1
:104F200042EAC12252EA505232FA03F07047094273
:104F30000BD4102BC4BF0020704703F5787CBCF164
:104F4000FF3F05D04FF0FF3070474FF00000704733
:104F500070B500F0C3F800BF49922480002070476C
:104F6000F0E7B0FA80F310FA03F10AD0C3F11D03A1
:104F700003F580634FEA41504FEA035202EBD1211F
:104F800070474FF000007047DFF848C170B51CEA69
:104F9000111E1EBF1CEA13159EEA0C0F95EA0C0F9A
:104FA00000F06F8081EA030423EA4C134EEAD47EBA
:104FB00021EA4C1141F4801143F48013AE44A1FB6B
:104FC000024CA0FB0365AEF17F7E361955EB0C0554
:104FD000A1FB034C4CF10003A0FB021C16EB0C06DA
:104FE000654153F10003094218BF46F0010613F46E
:104FF000007F0BD14FEA03314FEA0530340341EA19
:10500000155140EA16506FF003020AE04FEAC3213F
:105010004FEAC520F40241EA555140EA56506FF07C
:10502000020202EB2E4201EB025585EACE710AD054
:105030005FEA440C18BF24F0004450F1000041F135
:10504000000120EAD47040F2FE7C624500D270BDBF
:10505000A84214BF4FF080444FF04044002E08BFD8
:105060000024BEF1806FA8BFA1F1C041BDE870402F
:1050700080F282804FF0000001F1C04101F0004158
:1050800070479EEA0C0F0CEA131518BF95EA0C0F37
:1050900006D04FF0000081EA030E0EF0004170BD13
:1050A00000F01CF88900013E00F007B800F009B8D4
:1050B0004FEA430C5FEA5C5C08D081EA030100F030
:1050C0005BB84FEA410C5FEA5C5CF6D14FF0000040
:1050D000014970470000FF070000F87F0EF1020E43
:1050E0002EF0030E5EF8046B364205D4012A43EB22
:1050F000030515F5001F12D8012841EB010C1CF522
:10510000001F0CD80ED14FEAD17C15F5001F0CEB17
:105110004C0C0CF1020C08BF4CEBD37C04E04FF0BC
:10512000080C01E04FEAD37C0CEB4C0526FA05F69F
:1051300006F00706B6F1040C06D20EEB860CBDE8AD
:1051400070404CF0010C6047DFE80CF0090B0202E4
:105150004FF000414FF00000A1F5002170BD19464D
:105160001046012851EB010418BFD4F5001484BF88
:10517000002001F0004170BD0808A0F500114FEAC1
:105180003101704700000000000000000000000036
:10519000000000003F400000000000000000300060
:1051A000400030004000000009000BC03D000BC073
:1051B0003D00090018C024407FE0224031800000FB
:1051C000180024C01B000D803240018003801C4069
:1051D00027401C80074000401000600000000000D5
:1051E000000000000000000000001F802040402060
:1051F0000000402020401F80000000000900060041
:105200001F80060009000000040004003F80040025
:10521000040000000010006000000000000000001A
:10522000040004000400040004000000000000402A
:105230000000000000000000002001C0060038004F
:10524000400000001F802040204020401F800000C0
:10525000000010403FC000400000000018C0214086
:105260002240244018400000108020402440244068
:105270001B80000002000D0011003FC00140000033
:105280003C80244024402440238000001F80244090
:1052900024403440038000003000200027C0380044
:1052A000200000001B802440244024401B8000007C
:1052B0001C0022C0224022401F800000000000008D
:1052C0000840000000000000000000000460000032
:1052D00000000000000004000A001100208040408F
:1052E0000900090009000900090000000000404011
:1052F000208011000A000400180020002340240030
:10530000180000001F802040274029401F40000057
:10531000004007C039000F0001C0004020403FC0DE
:10532000244024401B8000001F802040204020405B
:105330003080000020403FC0204020401F800000FF
:1053400020403FC024402E4030C0000020403FC0DD
:1053500024402E00300000000F001080204022402A
:105360003380020020403FC0040004003FC02040C2
:10537000204020403FC0204020400000006020200E
:1053800020203FC02000200020403FC024400B00D0
:1053900030C0204020403FC020400040004000C0BE
:1053A0003FC03C0003C03C003FC0000020403FC065
:1053B0000C4023003FC020001F80204020402040A0
:1053C0001F80000020403FC024402400180000003F
:1053D0001F802140214020E01FA0000020403FC04E
:1053E0002440260019C0004018C024402440224018
:1053F00031800000300020403FC0204030000000DD
:1054000020003F80004000403F80200020003E0000
:1054100001C0070038002000380007C03C0007C06A
:1054200038000000204039C0060039C0204000008C
:105430002000384007C0384020000000304021C024
:105440002640384020C00000000000007FE04020DF
:1054500040200000000070000C00038000400000AD
:105460000000402040207FE00000000000002000FD
:10547000400020000000000000100010001000108C
:1054800000100010000000004000000000000000BC
:10549000000002800540054003C0004020003FC0DE
:1054A00004400440038000000000038004400440E6
:1054B0000640000000000380044024403FC000403C
:1054C0000000038005400540034000000000044048
:1054D0001FC0244024402000000002E00550055079
:1054E0000650042020403FC00440040003C0004098
:1054F0000000044027C00040000000000010001021
:10550000041027E00000000020403FC001400700D9
:1055100004C00440204020403FC000400040000044
:1055200007C0040007C0040003C00000044007C017
:105530000440040003C00040000003800440044015
:1055400003800000041007F00450044003800000B2
:10555000000003800440045007F00010044007C01E
:105560000240040004000000000006400540054021
:1055700004C00000000004001F8004400040000040
:10558000040007800040044007C0004004000700FA
:1055900004C0018006000400060001C0070001C02D
:1055A00006000000044006C0010006C004400000E0
:1055B0000410071004E0018006000400000004400D
:1055C00005C00640044000000000000004007BE02D
:1055D00040200000000000000000FFF0000000007C
:1055E000000040207BE0040000000000400080003C
:1055F00040002000200040000000000000000000EB
:1056000000000000000000000000000000001FCCAF
:10561000000C0000000000000000080030006000E6
:105620000800300060000000022003FC1E20022061
:1056300003FC1E200220000000000E1811043FFF92
:1056400010840C78000000000F0010840F3800C098
:10565000077818840078000000780F8410C41124A3
:105660000E9800E400840008080068007000000044
:10567000000000000000000000000000000007E043
:1056800018182004400200000000400220041818EE
:1056900007E00000000000000240024001800FF01F
:1056A00001800240024000000080008000800FF86E
:1056B00000800080008000000001000D000E00004E
:1056C000000000000000000000000080008000805A
:1056D00000800080008000800000000C000C0000B2
:1056E000000000000000000000000006001800603C
:1056F0000180060018002000000007F008081004D0
:105700001004080807F000000000080408041FFC4B
:10571000000400040000000000000E0C101410240F
:10572000104411840E0C000000000C181004110429
:10573000110412880C700000000000E00320042413
:1057400008241FFC0024000000001F98108411048E
:105750001104108810700000000007F00888110480
:10576000110418880070000000001C00100010FCDC
:1057700013001C001000000000000E3811441084BB
:10578000108411440E38000000000700088C1044FB
:105790001044088807F00000000000000000030C1F
:1057A000030C0000000000000000000000010106E2
:1057B0000000000000000000000000800140022006
:1057C0000410080810040000022002200220022019
:1057D000022002200220000000001004080804102B
:1057E000022001400080000000000E001200100C9A
:1057F000106C10800F00000003E00C1813E4142458
:1058000017C4082807D000000004003C03C41C4053
:10581000074000E4001C000410041FFC11041104E4
:1058200011040E880070000003E00C18100410042E
:10583000100410081C10000010041FFC10041004B9
:105840001004080807F0000010041FFC11041104E4
:1058500017C410040818000010041FFC11041100E4
:1058600017C010000800000003E00C18100410041A
:1058700010441C780040000010041FFC10840080BD
:10588000008010841FFC10040000100410041FFC92
:1058900010041004000000000003000110011001BA
:1058A0001FFE10001000000010041FFC11040380F4
:1058B0001464181C1004000010041FFC10040004E1
:1058C00000040004000C000010041FFC1F0000FC7A
:1058D0001F001FFC1004000010041FFC0C04030038
:1058E00000E010181FFC100007F008081004100456
:1058F0001004080807F0000010041FFC108410803A
:10590000108010800F00000007F0081810241024E9
:10591000101C080A07F2000010041FFC11041100FB
:1059200011C011300E0C000400000E1C1104108474
:10593000108410441C3800001800100010041FFCD4
:10594000100410001800000010001FF810040004DC
:10595000000410041FF8100010001E0011E0001CCD
:10596000007013801C0010001FC0103C00E01F00DE
:1059700000E0103C1FC000001004180C163401C0D9
:1059800001C01634180C100410001C00130400FC95
:1059900013041C00100000000804101C1064108484
:1059A00013041C04101800000000000000007FFE1B
:1059B0004002400240020000000030000C00038062
:1059C0000060001C00030000000040024002400292
:1059D0007FFE0000000000000000000020004000EA
:1059E0004000400020000000000100010001000113
:1059F0000001000100010001000040004000200003
:105A00000000000000000000000000980124014494
:105A10000144014400FC000410001FFC0088010444
:105A2000010400880070000000000070008801047C
:105A300001040104008800000000007000880104D7
:105A4000010411081FFC0004000000F80144014497
:105A50000144014400C800000000010401040FFCDF
:105A60001104110411001800000000D601290129B9
:105A7000012901C90106000010041FFC0084010077
:105A80000100010400FC000400000104190419FCD9
:105A900000040004000000000000000300010101F8
:105AA000190119FE0000000010041FFC0024004032
:105AB00001B4010C010400000000100410041FFCDC
:105AC0000004000400000000010401FC01040100C6
:105AD00001FC0104010000FC010401FC0084010040
